{
  "_format": "hh-sol-artifact-1",
  "contractName": "Chese",
  "sourceName": "contracts/Chese.sol",
  "abi": [
    {
      "inputs": [],
      "stateMutability": "nonpayable",
      "type": "constructor"
    },
    {
      "anonymous": false,
      "inputs": [
        {
          "indexed": false,
          "internalType": "uint256",
          "name": "id",
          "type": "uint256"
        },
        {
          "indexed": false,
          "internalType": "string",
          "name": "name",
          "type": "string"
        },
        {
          "indexed": false,
          "internalType": "address",
          "name": "seller",
          "type": "address"
        }
      ],
      "name": "NewListing",
      "type": "event"
    },
    {
      "anonymous": false,
      "inputs": [
        {
          "indexed": true,
          "internalType": "address",
          "name": "previousOwner",
          "type": "address"
        },
        {
          "indexed": true,
          "internalType": "address",
          "name": "newOwner",
          "type": "address"
        }
      ],
      "name": "OwnershipTransferred",
      "type": "event"
    },
    {
      "anonymous": false,
      "inputs": [
        {
          "indexed": false,
          "internalType": "uint256",
          "name": "id",
          "type": "uint256"
        },
        {
          "indexed": false,
          "internalType": "string",
          "name": "name",
          "type": "string"
        },
        {
          "indexed": false,
          "internalType": "address",
          "name": "seller",
          "type": "address"
        }
      ],
      "name": "RemovedListing",
      "type": "event"
    },
    {
      "inputs": [],
      "name": "activeListings",
      "outputs": [
        {
          "internalType": "uint256",
          "name": "",
          "type": "uint256"
        }
      ],
      "stateMutability": "view",
      "type": "function"
    },
    {
      "inputs": [
        {
          "internalType": "string",
          "name": "_name",
          "type": "string"
        },
        {
          "internalType": "uint256",
          "name": "_price",
          "type": "uint256"
        },
        {
          "internalType": "uint256",
          "name": "_tokenId",
          "type": "uint256"
        },
        {
          "internalType": "address",
          "name": "_nftContract",
          "type": "address"
        }
      ],
      "name": "createListing",
      "outputs": [],
      "stateMutability": "payable",
      "type": "function"
    },
    {
      "inputs": [],
      "name": "getActiveListings",
      "outputs": [
        {
          "internalType": "uint256[]",
          "name": "",
          "type": "uint256[]"
        }
      ],
      "stateMutability": "view",
      "type": "function"
    },
    {
      "inputs": [],
      "name": "getNumActiveListings",
      "outputs": [
        {
          "internalType": "uint256",
          "name": "",
          "type": "uint256"
        }
      ],
      "stateMutability": "view",
      "type": "function"
    },
    {
      "inputs": [
        {
          "internalType": "uint256",
          "name": "_listingId",
          "type": "uint256"
        }
      ],
      "name": "getPrice",
      "outputs": [
        {
          "internalType": "uint256",
          "name": "",
          "type": "uint256"
        }
      ],
      "stateMutability": "view",
      "type": "function"
    },
    {
      "inputs": [
        {
          "internalType": "address",
          "name": "_seller",
          "type": "address"
        }
      ],
      "name": "getSellersListings",
      "outputs": [
        {
          "internalType": "uint256[]",
          "name": "",
          "type": "uint256[]"
        }
      ],
      "stateMutability": "view",
      "type": "function"
    },
    {
      "inputs": [
        {
          "internalType": "uint256",
          "name": "",
          "type": "uint256"
        }
      ],
      "name": "listingToSeller",
      "outputs": [
        {
          "internalType": "address",
          "name": "",
          "type": "address"
        }
      ],
      "stateMutability": "view",
      "type": "function"
    },
    {
      "inputs": [
        {
          "internalType": "uint256",
          "name": "",
          "type": "uint256"
        }
      ],
      "name": "listings",
      "outputs": [
        {
          "internalType": "uint256",
          "name": "id",
          "type": "uint256"
        },
        {
          "internalType": "bool",
          "name": "active",
          "type": "bool"
        },
        {
          "internalType": "string",
          "name": "name",
          "type": "string"
        },
        {
          "internalType": "uint256",
          "name": "price",
          "type": "uint256"
        },
        {
          "internalType": "uint256",
          "name": "tokenId",
          "type": "uint256"
        },
        {
          "internalType": "address",
          "name": "nftContract",
          "type": "address"
        },
        {
          "internalType": "address payable",
          "name": "seller",
          "type": "address"
        }
      ],
      "stateMutability": "view",
      "type": "function"
    },
    {
      "inputs": [],
      "name": "owner",
      "outputs": [
        {
          "internalType": "address",
          "name": "",
          "type": "address"
        }
      ],
      "stateMutability": "view",
      "type": "function"
    },
    {
      "inputs": [
        {
          "internalType": "uint256",
          "name": "_listingId",
          "type": "uint256"
        }
      ],
      "name": "removeListing",
      "outputs": [],
      "stateMutability": "nonpayable",
      "type": "function"
    },
    {
      "inputs": [],
      "name": "renounceOwnership",
      "outputs": [],
      "stateMutability": "nonpayable",
      "type": "function"
    },
    {
      "inputs": [
        {
          "internalType": "address",
          "name": "",
          "type": "address"
        }
      ],
      "name": "sellerListingCount",
      "outputs": [
        {
          "internalType": "uint256",
          "name": "",
          "type": "uint256"
        }
      ],
      "stateMutability": "view",
      "type": "function"
    },
    {
      "inputs": [
        {
          "internalType": "address",
          "name": "newOwner",
          "type": "address"
        }
      ],
      "name": "transferOwnership",
      "outputs": [],
      "stateMutability": "nonpayable",
      "type": "function"
    }
  ],
  "bytecode": "0x608060405260006004553480156200001657600080fd5b50620000376200002b6200008860201b60201c565b6200009060201b60201c565b620000826040518060400160405280601a81526020017f4465706c6f79696e6720636865736520636f6e747261637421210000000000008152506200015460201b62000f491760201c565b620002e8565b600033905090565b60008060009054906101000a900473ffffffffffffffffffffffffffffffffffffffff169050816000806101000a81548173ffffffffffffffffffffffffffffffffffffffff021916908373ffffffffffffffffffffffffffffffffffffffff1602179055508173ffffffffffffffffffffffffffffffffffffffff168173ffffffffffffffffffffffffffffffffffffffff167f8be0079c531659141344cd1fd0a4f28419497f9722a3daafe3b4186f6b6457e060405160405180910390a35050565b620001f4816040516024016200016b919062000261565b6040516020818303038152906040527f41304fac000000000000000000000000000000000000000000000000000000007bffffffffffffffffffffffffffffffffffffffffffffffffffffffff19166020820180517bffffffffffffffffffffffffffffffffffffffffffffffffffffffff8381831617835250505050620001f760201b60201c565b50565b60008151905060006a636f6e736f6c652e6c6f679050602083016000808483855afa5050505050565b60006200022d8262000285565b62000239818562000290565b93506200024b818560208601620002a1565b6200025681620002d7565b840191505092915050565b600060208201905081810360008301526200027d818462000220565b905092915050565b600081519050919050565b600082825260208201905092915050565b60005b83811015620002c1578082015181840152602081019050620002a4565b83811115620002d1576000848401525b50505050565b6000601f19601f8301169050919050565b611bc980620002f86000396000f3fe6080604052600436106100c25760003560e01c80638da5cb5b1161007f578063de74e57b11610059578063de74e57b1461025b578063e75722301461029e578063f2fde38b146102db578063fd659a3e14610304576100c2565b80638da5cb5b146101c8578063bf80d312146101f3578063d3a17f2914610230576100c2565b80634421d2c0146100c7578063479ad4c31461010457806369e0eaa51461012d578063715018a61461016a5780637834a0bf1461018157806387c35bc01461019d575b600080fd5b3480156100d357600080fd5b506100ee60048036038101906100e991906112a8565b61032f565b6040516100fb9190611596565b60405180910390f35b34801561011057600080fd5b5061012b6004803603810190610126919061134c565b6104ce565b005b34801561013957600080fd5b50610154600480360381019061014f91906112a8565b61075c565b604051610161919061168a565b60405180910390f35b34801561017657600080fd5b5061017f610774565b005b61019b600480360381019061019691906112d1565b6107fc565b005b3480156101a957600080fd5b506101b2610b12565b6040516101bf9190611596565b60405180910390f35b3480156101d457600080fd5b506101dd610c69565b6040516101ea919061157b565b60405180910390f35b3480156101ff57600080fd5b5061021a6004803603810190610215919061134c565b610c92565b604051610227919061157b565b60405180910390f35b34801561023c57600080fd5b50610245610cc5565b604051610252919061168a565b60405180910390f35b34801561026757600080fd5b50610282600480360381019061027d919061134c565b610ccb565b60405161029597969594939291906116a5565b60405180910390f35b3480156102aa57600080fd5b506102c560048036038101906102c0919061134c565b610df2565b6040516102d2919061168a565b60405180910390f35b3480156102e757600080fd5b5061030260048036038101906102fd91906112a8565b610e47565b005b34801561031057600080fd5b50610319610f3f565b604051610326919061168a565b60405180910390f35b60606000600260008473ffffffffffffffffffffffffffffffffffffffff1673ffffffffffffffffffffffffffffffffffffffff1681526020019081526020016000205467ffffffffffffffff8111156103b2577f4e487b7100000000000000000000000000000000000000000000000000000000600052604160045260246000fd5b6040519080825280602002602001820160405280156103e05781602001602082028036833780820191505090505b5090506000805b6003805490508110156104c3578473ffffffffffffffffffffffffffffffffffffffff166001600083815260200190815260200160002060009054906101000a900473ffffffffffffffffffffffffffffffffffffffff1673ffffffffffffffffffffffffffffffffffffffff1614156104b05780838381518110610495577f4e487b7100000000000000000000000000000000000000000000000000000000600052603260045260246000fd5b60200260200101818152505081806104ac906119b4565b9250505b80806104bb906119b4565b9150506103e7565b508192505050919050565b803373ffffffffffffffffffffffffffffffffffffffff166001600083815260200190815260200160002060009054906101000a900473ffffffffffffffffffffffffffffffffffffffff1673ffffffffffffffffffffffffffffffffffffffff1614610570576040517f08c379a00000000000000000000000000000000000000000000000000000000081526004016105679061164a565b60405180910390fd5b6000600383815481106105ac577f4e487b7100000000000000000000000000000000000000000000000000000000600052603260045260246000fd5b906000526020600020906007020160010160006101000a81548160ff02191690831515021790555060006001600084815260200190815260200160002060006101000a81548173ffffffffffffffffffffffffffffffffffffffff021916908373ffffffffffffffffffffffffffffffffffffffff160217905550600260003373ffffffffffffffffffffffffffffffffffffffff1673ffffffffffffffffffffffffffffffffffffffff168152602001908152602001600020600081548092919061067790611927565b91905055506004600081548092919061068f90611927565b91905055506106d36040518060400160405280601c81526020017f52656d6f76696e672061206c697374696e6720776974682069643a200000000081525083610fe2565b7f84ee08c69cfe591f2b4d535edc61abc6550fbf5adf0a03075179a5acc3779460826003848154811061072f577f4e487b7100000000000000000000000000000000000000000000000000000000600052603260045260246000fd5b90600052602060002090600702016002013360405161075093929190611759565b60405180910390a15050565b60026020528060005260406000206000915090505481565b61077c61107e565b73ffffffffffffffffffffffffffffffffffffffff1661079a610c69565b73ffffffffffffffffffffffffffffffffffffffff16146107f0576040517f08c379a00000000000000000000000000000000000000000000000000000000081526004016107e79061166a565b60405180910390fd5b6107fa6000611086565b565b6000831161083f576040517f08c379a00000000000000000000000000000000000000000000000000000000081526004016108369061160a565b60405180910390fd5b60036040518060e0016040528060038054905081526020016001151581526020018681526020018581526020018481526020018373ffffffffffffffffffffffffffffffffffffffff1681526020013373ffffffffffffffffffffffffffffffffffffffff1681525090806001815401808255809150506001900390600052602060002090600702016000909190919091506000820151816000015560208201518160010160006101000a81548160ff0219169083151502179055506040820151816002019080519060200190610917929190611173565b50606082015181600301556080820151816004015560a08201518160050160006101000a81548173ffffffffffffffffffffffffffffffffffffffff021916908373ffffffffffffffffffffffffffffffffffffffff16021790555060c08201518160060160006101000a81548173ffffffffffffffffffffffffffffffffffffffff021916908373ffffffffffffffffffffffffffffffffffffffff1602179055505050600060016003805490506109d09190611857565b9050336001600083815260200190815260200160002060006101000a81548173ffffffffffffffffffffffffffffffffffffffff021916908373ffffffffffffffffffffffffffffffffffffffff160217905550600260003373ffffffffffffffffffffffffffffffffffffffff1673ffffffffffffffffffffffffffffffffffffffff1681526020019081526020016000206000815480929190610a74906119b4565b919050555060046000815480929190610a8c906119b4565b9190505550610ad06040518060400160405280602081526020017f4372656174696e672061206e6577206c697374696e6720776974682069643a2081525082610fe2565b7fbadfb6124bf1d26cb2ee27dbebadf377db1fc22edfcb833fa977d7f24ae91d69818633604051610b039392919061171b565b60405180910390a15050505050565b6060600060045467ffffffffffffffff811115610b58577f4e487b7100000000000000000000000000000000000000000000000000000000600052604160045260246000fd5b604051908082528060200260200182016040528015610b865781602001602082028036833780820191505090505b5090506000805b600380549050811015610c605760038181548110610bd4577f4e487b7100000000000000000000000000000000000000000000000000000000600052603260045260246000fd5b906000526020600020906007020160010160009054906101000a900460ff1615610c4d5780838381518110610c32577f4e487b7100000000000000000000000000000000000000000000000000000000600052603260045260246000fd5b6020026020010181815250508180610c49906119b4565b9250505b8080610c58906119b4565b915050610b8d565b50819250505090565b60008060009054906101000a900473ffffffffffffffffffffffffffffffffffffffff16905090565b60016020528060005260406000206000915054906101000a900473ffffffffffffffffffffffffffffffffffffffff1681565b60045481565b60038181548110610cdb57600080fd5b90600052602060002090600702016000915090508060000154908060010160009054906101000a900460ff1690806002018054610d1790611951565b80601f0160208091040260200160405190810160405280929190818152602001828054610d4390611951565b8015610d905780601f10610d6557610100808354040283529160200191610d90565b820191906000526020600020905b815481529060010190602001808311610d7357829003601f168201915b5050505050908060030154908060040154908060050160009054906101000a900473ffffffffffffffffffffffffffffffffffffffff16908060060160009054906101000a900473ffffffffffffffffffffffffffffffffffffffff16905087565b600060038281548110610e2e577f4e487b7100000000000000000000000000000000000000000000000000000000600052603260045260246000fd5b9060005260206000209060070201600301549050919050565b610e4f61107e565b73ffffffffffffffffffffffffffffffffffffffff16610e6d610c69565b73ffffffffffffffffffffffffffffffffffffffff1614610ec3576040517f08c379a0000000000000000000000000000000000000000000000000000000008152600401610eba9061166a565b60405180910390fd5b600073ffffffffffffffffffffffffffffffffffffffff168173ffffffffffffffffffffffffffffffffffffffff161415610f33576040517f08c379a0000000000000000000000000000000000000000000000000000000008152600401610f2a9061162a565b60405180910390fd5b610f3c81611086565b50565b6000600454905090565b610fdf81604051602401610f5d91906115b8565b6040516020818303038152906040527f41304fac000000000000000000000000000000000000000000000000000000007bffffffffffffffffffffffffffffffffffffffffffffffffffffffff19166020820180517bffffffffffffffffffffffffffffffffffffffffffffffffffffffff838183161783525050505061114a565b50565b61107a8282604051602401610ff89291906115da565b6040516020818303038152906040527f9710a9d0000000000000000000000000000000000000000000000000000000007bffffffffffffffffffffffffffffffffffffffffffffffffffffffff19166020820180517bffffffffffffffffffffffffffffffffffffffffffffffffffffffff838183161783525050505061114a565b5050565b600033905090565b60008060009054906101000a900473ffffffffffffffffffffffffffffffffffffffff169050816000806101000a81548173ffffffffffffffffffffffffffffffffffffffff021916908373ffffffffffffffffffffffffffffffffffffffff1602179055508173ffffffffffffffffffffffffffffffffffffffff168173ffffffffffffffffffffffffffffffffffffffff167f8be0079c531659141344cd1fd0a4f28419497f9722a3daafe3b4186f6b6457e060405160405180910390a35050565b60008151905060006a636f6e736f6c652e6c6f679050602083016000808483855afa5050505050565b82805461117f90611951565b90600052602060002090601f0160209004810192826111a157600085556111e8565b82601f106111ba57805160ff19168380011785556111e8565b828001600101855582156111e8579182015b828111156111e75782518255916020019190600101906111cc565b5b5090506111f591906111f9565b5090565b5b808211156112125760008160009055506001016111fa565b5090565b6000611229611224846117bc565b611797565b90508281526020810184848401111561124157600080fd5b61124c8482856118e5565b509392505050565b60008135905061126381611b65565b92915050565b600082601f83011261127a57600080fd5b813561128a848260208601611216565b91505092915050565b6000813590506112a281611b7c565b92915050565b6000602082840312156112ba57600080fd5b60006112c884828501611254565b91505092915050565b600080600080608085870312156112e757600080fd5b600085013567ffffffffffffffff81111561130157600080fd5b61130d87828801611269565b945050602061131e87828801611293565b935050604061132f87828801611293565b925050606061134087828801611254565b91505092959194509250565b60006020828403121561135e57600080fd5b600061136c84828501611293565b91505092915050565b6000611381838361155d565b60208301905092915050565b6113968161189d565b82525050565b6113a58161188b565b82525050565b60006113b682611812565b6113c08185611835565b93506113cb836117ed565b8060005b838110156113fc5781516113e38882611375565b97506113ee83611828565b9250506001810190506113cf565b5085935050505092915050565b611412816118af565b82525050565b60006114238261181d565b61142d8185611846565b935061143d8185602086016118f4565b61144681611a8a565b840191505092915050565b6000815461145e81611951565b6114688186611846565b945060018216600081146114835760018114611495576114c8565b60ff19831686526020860193506114c8565b61149e856117fd565b60005b838110156114c0578154818901526001820191506020810190506114a1565b808801955050505b50505092915050565b60006114de601683611846565b91506114e982611a9b565b602082019050919050565b6000611501602683611846565b915061150c82611ac4565b604082019050919050565b6000611524601b83611846565b915061152f82611b13565b602082019050919050565b6000611547602083611846565b915061155282611b3c565b602082019050919050565b611566816118db565b82525050565b611575816118db565b82525050565b6000602082019050611590600083018461139c565b92915050565b600060208201905081810360008301526115b081846113ab565b905092915050565b600060208201905081810360008301526115d28184611418565b905092915050565b600060408201905081810360008301526115f48185611418565b9050611603602083018461156c565b9392505050565b60006020820190508181036000830152611623816114d1565b9050919050565b60006020820190508181036000830152611643816114f4565b9050919050565b6000602082019050818103600083015261166381611517565b9050919050565b600060208201905081810360008301526116838161153a565b9050919050565b600060208201905061169f600083018461156c565b92915050565b600060e0820190506116ba600083018a61156c565b6116c76020830189611409565b81810360408301526116d98188611418565b90506116e8606083018761156c565b6116f5608083018661156c565b61170260a083018561139c565b61170f60c083018461138d565b98975050505050505050565b6000606082019050611730600083018661156c565b81810360208301526117428185611418565b9050611751604083018461139c565b949350505050565b600060608201905061176e600083018661156c565b81810360208301526117808185611451565b905061178f604083018461139c565b949350505050565b60006117a16117b2565b90506117ad8282611983565b919050565b6000604051905090565b600067ffffffffffffffff8211156117d7576117d6611a5b565b5b6117e082611a8a565b9050602081019050919050565b6000819050602082019050919050565b60008190508160005260206000209050919050565b600081519050919050565b600081519050919050565b6000602082019050919050565b600082825260208201905092915050565b600082825260208201905092915050565b6000611862826118db565b915061186d836118db565b9250828210156118805761187f6119fd565b5b828203905092915050565b6000611896826118bb565b9050919050565b60006118a8826118bb565b9050919050565b60008115159050919050565b600073ffffffffffffffffffffffffffffffffffffffff82169050919050565b6000819050919050565b82818337600083830152505050565b60005b838110156119125780820151818401526020810190506118f7565b83811115611921576000848401525b50505050565b6000611932826118db565b91506000821415611946576119456119fd565b5b600182039050919050565b6000600282049050600182168061196957607f821691505b6020821081141561197d5761197c611a2c565b5b50919050565b61198c82611a8a565b810181811067ffffffffffffffff821117156119ab576119aa611a5b565b5b80604052505050565b60006119bf826118db565b91507fffffffffffffffffffffffffffffffffffffffffffffffffffffffffffffffff8214156119f2576119f16119fd565b5b600182019050919050565b7f4e487b7100000000000000000000000000000000000000000000000000000000600052601160045260246000fd5b7f4e487b7100000000000000000000000000000000000000000000000000000000600052602260045260246000fd5b7f4e487b7100000000000000000000000000000000000000000000000000000000600052604160045260246000fd5b6000601f19601f8301169050919050565b7f5072696365206d757374206e6f74206265207a65726f00000000000000000000600082015250565b7f4f776e61626c653a206e6577206f776e657220697320746865207a65726f206160008201527f6464726573730000000000000000000000000000000000000000000000000000602082015250565b7f596f7520646f206e6f74206f776e2074686973206c697374696e670000000000600082015250565b7f4f776e61626c653a2063616c6c6572206973206e6f7420746865206f776e6572600082015250565b611b6e8161188b565b8114611b7957600080fd5b50565b611b85816118db565b8114611b9057600080fd5b5056fea2646970667358221220e216bdd58cde895b1e34466f9e3a5b5f0ebd5c7ab85e01f65b64ed0728780a8264736f6c63430008040033",
  "linkReferences": {},
  "deployedLinkReferences": {}
}